:0100000001FE
:0100010002FC
:0100020000FD
:0100030003F9
:0100040001FA
:0100050001F9
:0100060001F8
:0100070004F4
:0100080005F2
:0100090002F4
:01000A0003F2
:01000B0001F3
:01000C0004EF
:01000D0000F2
:01000E0001F0
:01000F0001EF
:0100100004EB
:0100110008E6
:0100120001EC
:0100130004E8
:010014000CDF
:0100150001E9
:0100160004E5
:0100170010D8
:0100180007E0
:0100190001E5
:01001A0000E5
:01001B0007DD
:01001C0001E2
:01001D0002E0
:01001E0007DA
:01001F0001DF
:0100200010CF
:0100210006D8
:0100220024B9
:0100230014C8
:0100240014C7
:0100250005D5
:010026004F8A
:0100270001D7
:0100280001D6
:0100290001D5
:01002A0014C1
:01002B0014C0
:01002C0014BF
:01002D0014BE
:01002E0014BD
:01002F0014BC
:0100300000CF
:0100310000CE
:0100320000CD
:0100330000CC
:0100340000CB
:0100350000CA
:0100360000C9
:0100370000C8
:0100380001C6
:0100390001C5
:01003A0000C5
:01003B000DB7
:01003C0001C2
:01003D0002C0
:01003E000DB4
:01003F0001BF
:0100400006B9
:010041000DB1
:0100420001BC
:0100430002BA
:010044000BB0
:0100450001B9
:0100460002B7
:0100470014A4
:0100480000B7
:0100490000B6
:01004A0001B4
:01004B0001B3
:01004C0000B3
:01004D000BA7
:01004E0001B0
:01004F0001AF
:010050000FA0
:0100510001AD
:0100520000AD
:010053000F9D
:0100540002A9
:0100550000AA
:010056001099
:0100570001A7
:0100580000A7
:010059001096
:01005A0002A3
:01005B0000A4
:01005C000A99
:01005D0001A1
:01005E00029F
:01005F000B95
:01006000019E
:010061000599
:010062000D90
:01006300019B
:01006400019A
:010065001486
:010066000099
:010067000098
:010068000097
:010069000096
:01006A000095
:01006B000094
:01006C000093
:01006D000092
:01006E000091
:01006F000090
:01007000008F
:01007100008E
:01007200008D
:01007300008C
:01007400008B
:01007500008A
:010076000089
:010077000088
:010078000087
:010079000086
:01007A000085
:01007B000084
:01007C000083
:01007D000082
:01007E000081
:01007F000080
:01008000007F
:01008100007E
:01008200007D
:01008300007C
:01008400007B
:01008500007A
:010086000079
:010087000078
:010088000077
:010089000076
:01008A000075
:01008B000074
:01008C000073
:01008D000072
:01008E000071
:01008F000070
:01009000006F
:01009100006E
:01009200006D
:01009300006C
:01009400006B
:01009500006A
:010096000069
:010097000068
:010098000067
:010099000066
:01009A000065
:01009B000064
:01009C000063
:01009D000062
:01009E000061
:01009F000060
:0100A000005F
:0100A100005E
:0100A200005D
:0100A300005C
:0100A400005B
:0100A500005A
:0100A6000059
:0100A7000058
:0100A8000057
:0100A9000056
:0100AA000055
:0100AB000054
:0100AC000053
:0100AD000052
:0100AE000051
:0100AF000050
:0100B000004F
:0100B100004E
:0100B200004D
:0100B300004C
:0100B400004B
:0100B500004A
:0100B6000049
:0100B7000048
:0100B8000047
:0100B9000046
:0100BA000045
:0100BB000044
:0100BC000043
:0100BD000042
:0100BE000041
:0100BF000040
:0100C000003F
:0100C100003E
:0100C200003D
:0100C300003C
:0100C400003B
:0100C500003A
:0100C6000039
:0100C7000038
:0100C8000037
:0100C9000036
:0100CA000035
:0100CB000034
:0100CC000033
:0100CD000032
:0100CE000031
:0100CF000030
:0100D000002F
:0100D100002E
:0100D200002D
:0100D300002C
:0100D400002B
:0100D500002A
:0100D6000029
:0100D7000028
:0100D8000027
:0100D9000026
:0100DA000025
:0100DB000024
:0100DC000023
:0100DD000022
:0100DE000021
:0100DF000020
:0100E000001F
:0100E100001E
:0100E200001D
:0100E300001C
:0100E400001B
:0100E500001A
:0100E6000019
:0100E7000018
:0100E8000017
:0100E9000016
:0100EA000015
:0100EB000014
:0100EC000013
:0100ED000012
:0100EE000011
:0100EF000010
:0100F000000F
:0100F100000E
:0100F200000D
:0100F300000C
:0100F400000B
:0100F500000A
:0100F6000009
:0100F7000008
:0100F8000007
:0100F9000006
:0100FA000005
:0100FB000004
:0100FC000003
:0100FD000002
:0100FE000001
:0100FF000000
:00000001FF
